:100000008AC00000A3C00000A1C000009FC0000083
:100010009DC000009BC0000099C0000097C0000078
:1000200095C0000093C0000091C0000054C40000BF
:1000300018C400008BC0000089C0000087C0000009
:1000400085C0000083C0000081C000007FC00000A8
:100050007DC000007BC0000079C00000DFC0000050
:1000600075C0000073C0000071C000006FC00000C8
:100070006DC000001201100102000008EB034B20CC
:1000800001000102000109023E00020100C0320924
:1000900004000001020201000524000110042402F2
:1000A000060524060001070582030800FF09040174
:1000B00000020A0000000705040240000107058352
:1000C000024000010403090432034100720064008D
:1000D000750069006E006F0020002800770077002F
:1000E00077002E00610072006400750069006E00E8
:1000F0006F002E0063006300290000001803410018
:1001000072006400750069006E006F0020005500E9
:100110006E006F00000011241FBECFEFD2E0DEBFE3
:10012000CDBF11E0A0E0B1E0EAE5FFE002C005903C
:100130000D92A631B107D9F712E0A6E1B1E001C0F6
:100140001D92AF32B107E1F7D4D005C759CFDF9286
:10015000EF92FF920F931F93FC018489813019F075
:10016000823021F405C040E3D42E04C0DD2402C057
:1001700030E2D32E8389823011F488E0D82A858931
:10018000873031F0883031F0863031F482E003C0BE
:1001900084E001C086E0D82A1092C9001092C800FD
:1001A0001092CA00E784F0880189128980E0E8167D
:1001B00081EEF80680E0080780E0180719F420E1D6
:1001C00030E00FC0C801B701969587957795679580
:1001D00060587B47814E9F4FA80197019AD62150C6
:1001E00030403093CD002093CC00D092CA0080E004
:1001F000E81681EEF80680E0080780E0180711F0A5
:1002000082E001C080E08093C80088E98093C90043
:100210001F910F91FF90EF90DF9008951F920F9222
:100220000FB60F9211242F938F939F93EF93FF9309
:100230009091CE008EB38430F1F4E0919901F09169
:100240009A019083E0919901F0919A01CF01019672
:1002500090939A01809399018959914021F489E101
:1002600091E0928381839FB7F89480919D018F5F85
:1002700080939D019FBFFF91EF919F918F912F914F
:100280000F900FBE0F901F901895FC01858580FF81
:1002900002C05F9808955F9A089580E091E0CFC50D
:1002A00080E091E090C584B7877F84BF28E10FB6D6
:1002B000F89420936000109260000FBE87E690E0F3
:1002C0009093CD008093CC0086E08093CA0010927A
:1002D000C8002093C900539A5A9A8AB180638AB998
:1002E0008BB180638BB9B2D284E085BD5F9A579A97
:1002F0000895EF92FF920F931F93CF93DF93D3DF75
:100300002FB7F8948EE991E090931F0280931E021C
:1003100090932102809320022FBF2FB7F89489E198
:1003200091E090939A018093990190939C0180931E
:100330009B012FBF7894CEE9D1E059E1E52E51E041
:10034000F52E03E08FB7F894909122028FBF90387A
:1003500009F180E091E094D497FD1CC0E0911E0269
:10036000F0911F028083E0911E02F0911F02CF01E5
:10037000019690931F0280931E028E51924011F4B9
:10038000D283C1839FB7F894809122028F5F8093BC
:1003900022029FBF8FB7F89410919D018FBFA8993B
:1003A00003C0113608F443C0A89A80919D018823A8
:1003B00001F15D98009316011CC0E0919B01F09142
:1003C0009C016191F0939C01E0939B01E959F140FC
:1003D00021F4F0929C01E0929B019FB7F8948091E8
:1003E0009D01815080939D019FBF80E091E0AED43C
:1003F0001150112311F780911601882351F080913B
:10040000160181508093160180911601882309F40A
:100410005D9A80911701882351F0809117018150D6
:100420008093170180911701882309F45C9A8FB794
:10043000F894909122028FBF992309F1E091200254
:10044000F09121022191F0932102E0932002EE51DC
:10045000F24021F4D0932102C09320029FB7F89478
:10046000809122028150809322029FBF8091C80018
:1004700085FFFCCF2093CE005C980093170180E0AD
:1004800091E055D4EAD35ECFDA01923049F093304F
:1004900061F09130F9F4E4E7F0E022E130E01EC0D1
:1004A000E6E8F0E02EE330E019C0813049F0813019
:1004B00018F0823079F408C0E4ECF0E0849107C0D1
:1004C000E8ECF0E0849103C0ECEFF0E08491282F99
:1004D00030E004C0E0E0F0E020E030E0ED93FC9399
:1004E000C901089528E030E040E003C04F5F220FCB
:1004F000331F28173907D0F3842F8295807F089502
:100500008093E9008091EB0081608093EB00109272
:10051000ED006093EC004093ED008091EE00881FA9
:100520008827881F08951092F40090E09093E900C6
:100530001092F0001092E8001092ED008091EB0014
:100540008E7F8093EB009F5F953081F708958091B7
:10055000270288238CF403C08EB38823B1F08091E6
:10056000E80082FFF9CF8091E8008B778093E80064
:1005700008958EB3882349F08091E80080FFF9CF79
:100580008091E8008E778093E800089594E680914A
:10059000EC0080FF05C08091E80080FF05C023C00B
:1005A0008091E80082FD1FC08EB3882311F482E0A1
:1005B00008958EB3853011F483E008958091EB00A7
:1005C00085FF02C081E008958091E10082FFDFCFC6
:1005D0008091E1008B7F8093E100992311F484E006
:1005E00008959150D4CF80E008959C0140912D0250
:1005F00050912E024617570718F4F90120E038C031
:100600006115710511F0AB01F8CF8091E8008E778C
:100610008093E80040E050E0F0CF8091E80083FF55
:1006200002C081E008958091E80082FD2DC08EB364
:10063000882381F18EB3853079F18091E80080FFC5
:1006400017C09091F20006C081918093F100415053
:1006500050409F5F4115510511F09830A8F320E0FC
:10066000983009F421E08091E8008E778093E800CB
:100670004115510591F6222381F606C08EB38823D9
:1006800049F08EB3853041F08091E80082FFF6CFCB
:1006900080E0089582E0089583E008959C014091F0
:1006A0002D0250912E024617570710F490E03BC0E0
:1006B0006115710511F0AB01F9CF8091E8008E77DB
:1006C0008093E80040E050E0F1CF8091E80083FFA4
:1006D00002C081E008958091E80082FD30C08EB3B1
:1006E000882399F18EB3853091F18091E80080FFE5
:1006F0001AC08091F20009C0F9012F5F3F4FE491C9
:10070000E093F100415050408F5F4115510511F0C9
:10071000883090F390E0883009F491E08091E8000F
:100720008E778093E8004115510579F6992369F693
:1007300006C08EB3882349F08EB3853041F0809196
:10074000E80082FFF6CF80E0089582E0089583E01C
:1007500008959C016115710529F48091E8008B775B
:100760008093E800F90120C08091E80083FF02C077
:1007700081E008958EB3882339F18EB3853031F14D
:100780008091E80082FFF0CF06C08091F100819354
:100790006150704021F08091F2008823B1F7809180
:1007A000E8008B778093E80061157105E9F606C0D3
:1007B0008EB3882349F08EB3853041F08091E800F4
:1007C00080FFF6CF80E0089582E0089583E00895E9
:1007D00042D044D01EBA10922502109224021092E8
:1007E000230284E089BD89B5826089BD09B400FE19
:1007F000FDCF8091D800982F9F779093D800806884
:100800008093D800809163008E7F809363008091F5
:10081000D8008F7D8093D8008091E0008E7F8093F8
:10082000E0008091E1008E7F8093E1008091E20002
:1008300081608093E2008091E100877F8093E100F6
:100840008091E20088608093E2000895C1DF81E03A
:100850008093260208951092E20008951092E1001C
:1008600008951F920F920FB60F9211241F932F938A
:100870003F934F935F936F937F938F939F93AF9328
:10088000BF93EF93FF93E9EEF0E0108117701082B1
:10089000E0EFF0E08081877F80837894C3D0F89484
:1008A000A9EEB0E01C92E0EFF0E0808188608083E8
:1008B0001C93FF91EF91BF91AF919F918F917F9189
:1008C0006F915F914F913F912F911F910F900FBEAC
:1008D0000F901F9018951F920F920FB60F92112430
:1008E0002F933F934F935F936F937F938F939F9338
:1008F000AF93BF93EF93FF938091E10080FF1BC004
:100900008091E20080FF17C08091E1008E7F80938C
:10091000E1008091E2008E7F8093E2008091E2000E
:1009200080618093E2008091D80080628093D8003B
:1009300019BC1EBA91D18091E10084FF29C0809139
:10094000E20084FF25C084E089BD89B5826089BD4D
:1009500009B400FEFDCF8091D8008F7D8093D80030
:100960008091E1008F7E8093E1008091E2008F7E94
:100970008093E2008091E20081608093E2008091A8
:100980002502882311F481E001C084E08EBB64D18C
:100990008091E10083FF27C08091E20083FF23C0A4
:1009A0008091E100877F8093E10082E08EBB10920E
:1009B00025028091E1008E7F8093E1008091E2002A
:1009C0008E7F8093E2008091E20080618093E2005C
:1009D000AADD80E060E042E093DD8091F000886075
:1009E0008093F00039D18091E10082FF0AC08091AC
:1009F000E20082FF06C08091E1008B7F8093E100DE
:100A00002BD1FF91EF91BF91AF919F918F917F91EA
:100A10006F915F914F913F912F910F900FBE0F906B
:100A20001F9018951F93DF93CF9300D0CDB7DEB7FB
:100A3000E7E2F2E08091F100819382E0EF32F80783
:100A4000C9F78091270230912802353009F487C018
:100A5000363040F43130C9F1313070F0333009F0C4
:100A6000E6C033C0383009F4B8C0393009F4C7C023
:100A7000363009F0DCC092C0803821F0823809F0AD
:100A8000D6C008C09091230280912402882399F057
:100A9000926011C080912B0287708093E900809151
:100AA000EB0090E025E0969587952A95E1F7982F41
:100AB00091701092E9008091E800877F8093E800B0
:100AC0009093F1001092F10093C0882319F08230C6
:100AD00009F0ADC090E08F719070009721F00297FF
:100AE00009F0A6C00CC080912902813009F0A0C095
:100AF00010922402333069F5809324022AC0809139
:100B00002902882331F520912B02277009F490C027
:100B10002093E9008091EB0080FF8AC0333021F4FC
:100B20008091EB00806213C08091EB008061809324
:100B3000EB0081E090E002C0880F991F2A95E2F750
:100B40008093EA001092EA008091EB008860809325
:100B5000EB001092E9008091E800877F4CC0882369
:100B600009F065C0109129028091E800877F809389
:100B7000E800EDDC04C08EB3882309F459C08091ED
:100B8000E80080FFF8CF812F8F7711F492E001C049
:100B900093E09EBB80688093E3004AC08058823017
:100BA00008F045C08091290290912A0260912B02A1
:100BB000AE014F5F5F4F68DCBC010097C9F18091C7
:100BC000E800877F8093E80089819A8167DD8091C2
:100BD000E8008B778093E8002BC0803841F5809146
:100BE000E800877F8093E800809125028093F100E0
:100BF0008091E8008E778093E800A9DC19C08823F3
:100C0000B1F490912902923098F48091E800877FA6
:100C10008093E800909325029ADC80912502882336
:100C200011F483E001C084E08EBB3ADB01C035DB08
:100C30008091E80083FF0AC08091EB00806280937E
:100C4000EB008091E800877F8093E8000F900F9081
:100C5000CF91DF911F91089508951F938EB388233C
:100C600061F01091E9001092E9008091E80083FFA3
:100C700001C0D8DE17701093E9001F910895089500
:100C8000FC018EB3843021F587859089A189B289D2
:100C90000097A105B105E1F085818093E90080917D
:100CA000E80082FF15C08091F200882319F42FEF2D
:100CB0003FEF04C08091F100282F30E08091F200D6
:100CC000882341F48091E8008B778093E80002C08C
:100CD0002FEF3FEFC9010895FC018EB3843011F569
:100CE00087859089A189B2890097A105B105D1F0C6
:100CF00081818093E9008091F2008823A9F090918E
:100D0000E8008091E8008E778093E80095FD0CC0A4
:100D10003DDC982F882349F48091E8008E778093FA
:100D2000E80003C092E001C090E0892F0895FC0123
:100D30008EB3843051F487859089A189B289009758
:100D4000A105B10511F0CF01C7CF08951F93FC0194
:100D5000162F8EB38430D9F487859089A189B28902
:100D60000097A105B10599F081818093E9008091F8
:100D7000E80085FD08C08091E8008E778093E80048
:100D800005DC882329F41093F10080E001C082E0A3
:100D90001F910895EF92FF920F931F93E82E162F45
:100DA000F42EC9019FDB1295110F110F107C1F2922
:100DB000482F4260402B8E2D612FA2DB1F910F9197
:100DC000FF90EF9008950F93CF93DF93EC010D9672
:100DD000FC0189E0DF011D928A95E9F72A813B81B8
:100DE00099818C81882311F400E001C004E0892FEF
:100DF00062E041E0CFDF8823E9F02E813F819D81D1
:100E00008885882311F400E001C004E0892F62E0A6
:100E100040E0C0DF882371F02A853B8599858C8569
:100E2000882311F400E001C004E0892F63E041E071
:100E3000B1DF01C080E0DF91CF910F910895CF9392
:100E4000DF93EC018091E80083FF60C0888190E02F
:100E500020912B0230912C022817390709F056C037
:100E600080912802813261F0823220F4803209F0D0
:100E70004DC019C0823269F1833209F047C038C0D1
:100E800080912702813A09F041C08091E800877F74
:100E90008093E800CE010F9667E070E0A6DB8091BA
:100EA000E8008B7713C080912702813279F5809119
:100EB000E800877F8093E800CE010F9667E070E03E
:100EC00048DCCE0144D98091E8008E778093E80019
:100ED0001DC0809127028132C9F48091E800877F8C
:100EE0008093E800809129028D87CE01CED90DC074
:100EF00080912702813251F48091E800877F8093AE
:100F0000E800CE0160912902BADE21DBDF91CF91AA
:100F10000895A1E21A2EAA1BBB1BFD010DC0AA1F3A
:100F2000BB1FEE1FFF1FA217B307E407F50720F052
:100F3000A21BB30BE40BF50B661F771F881F991FCD
:100F40001A9469F760957095809590959B01AC0116
:0A0F5000BD01CF010895F894FFCF12
:100F5A0000034000000440000002080000000000F6
:060F6A0000000000000081
:00000001FF
