:1010000039C0000052C0000050C000004EC00000B7
:101010004CC000004AC0000048C0000046C00000AC
:1010200044C0000042C0000040C0000007C50000EE
:10103000CBC400003AC0000038C0000036C0000039
:1010400034C0000032C0000030C000002EC00000DC
:101050002CC000002AC0000028C0000026C00000EC
:1010600024C0000022C0000020C000001EC00000FC
:101070001CC0000011241FBECFEFD2E0DEBFCDBFE9
:1010800011E0A0E0B1E0E8EEFDE102C005900D92B4
:10109000AC35B107D9F711E0ACE5B1E001C01D9264
:1010A000AD37B107E1F755D39DC6AACF982F15C02C
:1010B0008091F200882371F48091E8008B7F809307
:1010C000E80003C08EB3882351F08091E80082FFCE
:1010D000F9CF02C08091F1009150992349F708950A
:1010E00020916A01309169018091680190916701B6
:1010F0008093610190936201C90180936301909391
:101100006401089580916501843009F45AC08530E6
:1011100030F4813059F0833009F0C3C01FC08530EE
:1011200009F4A0C0863009F0BCC0AFC08091660150
:10113000823008F0B6C0D4DF80916601882361F464
:10114000809161019091620123E0FC01209357009E
:10115000E89507B600FCFDCF85E008C080916601E8
:10116000882311F0823029F4BBDF89E080930101EC
:101170000895813009F095C020E030E040E050E073
:10118000F90184918F3F81F0CA01AA27BB27809380
:10119000600130936201209361018AE08093010134
:1011A00085E080935D0108952F5F3F4F4F4F5F4F64
:1011B0002030F0E13F07F0E04F07F0E05F0701F774
:1011C000089580916601833051F581E080935C0140
:1011D00080916B0190916C01892B71F08091670176
:1011E000813009F05EC080916A019091690190930D
:1011F0005F0180935E01089580916701882361F407
:101200002CE088E190E00FB6F894A89580936000F8
:101210000FBE209360000895109200010895882366
:1012200009F03FC0809167018F3F09F03AC0E0E0CC
:10123000F0E093E085E090935700E89507B600FC56
:10124000FDCF80935700E89507B600FCFDCFE0582E
:10125000FF4F20E1E030F20771F781E18093570002
:10126000E8950895E091670180916601882321F453
:10127000F0E0EB5FFE4F05C0813099F4F0E0EE52F4
:10128000FF4F8081809370010895809166018330C3
:1012900041F480916701882321F480916801809353
:1012A000600108952F923F924F925F926F927F92CA
:1012B0009F92AF92BF92CF92DF92EF92FF920F93E5
:1012C0001F93CF93DF9380917B0190917C0190934A
:1012D0006C0180936B0180916D01882351F08091A6
:1012E0006D01815080936D0180916D01882309F417
:1012F0005D9A80916E01882351F080916E0181503A
:1013000080936E0180916E01882309F45C9A80912C
:101310007601833009F4B8C1843030F4813071F043
:10132000823009F0E9C114C1853009F4CBC18530A0
:1013300008F4C0C1863009F0DFC1D3C15C9883E0F6
:1013400080936E018091E800877F8093E800809110
:101350005C01882329F0D6DE5D9A5C9A10925C01CC
:1013600020916B0130916C012115310529F42AC0BF
:101370008EB3882309F4C0C18091E80082FFF8CFC2
:101380008091F100809365012150304030936C01D1
:1013900020936B01E6E6F1E00CC08091F1008193AF
:1013A0002150304081E0EB36F80719F43183208377
:1013B00008C08091F200882381F730936C0120935C
:1013C0006B01A0DE80910101853009F0BDC08091E4
:1013D0006B0190916C01892B21F482E080930101D3
:1013E000B3C08AE163DE809161018F715FDEC091DD
:1013F0006301D091640120916101309162012196D5
:10140000AE01421B530B219780916601882309F09E
:1014100092C01A0136942794C901A0916001B0E0EE
:101420009C01AD0162E0E62EF12C012D112DE20EA2
:10143000F31E041F151F59016A0190E0992493942B
:10144000B5E0A3E048C08091F200882371F4809158
:10145000E8008B7F8093E80004C08EB3882309F4F2
:101460004BC18091E80082FFF8CF08942108310831
:101470008091F100682F8091F100782FF5010B0128
:1014800090925700E89511249F5F903419F0211431
:101490003104A1F4F901B0935700E89507B600FCB8
:1014A000FDCF2114310451F0F701A0935700E895C6
:1014B00007B600FCFDCFA801970190E042E0442E62
:1014C000512C612C712CE40CF51C061D171DA40C6D
:1014D000B51CC61CD71C2114310409F0B4CFD0931D
:1014E0006201C093610181E180935700E8952AC0B1
:1014F0008091F200882371F48091E8008B7F8093C3
:10150000E80004C08EB3882309F49EC08091E800EF
:1015100082FFF8CF8091F100F999FECF1FBA32BD5A
:1015200021BD80BD0FB6F894FA9AF99A0FBE4150CA
:1015300050402F5F3F4F41155105D1F63093620166
:101540002093610180E1B2DD8091E8008B7FC6C00D
:101550008091E800877F8093E8005D9883E0809326
:101560006D0104C08EB3882309F4C6C08091E800E1
:1015700080FFF8CF80910101893091F08A3069F4C1
:1015800080916601813049F48091610190916201FE
:101590008093F1009093F1009EC08091700199C0FA
:1015A0006091630170916401209161013091620149
:1015B0006F5F7F4FAB01421B530B615070408091B6
:1015C0006601882389F58A0116950795C901A091BE
:1015D0006001B0E09C01AD011FC08091F20080323B
:1015E00071F48091E8008E7F8093E80004C08EB390
:1015F000882309F481C08091E80080FFF8CFF901C9
:10160000859194918093F1009093F10001501040E6
:101610002E5F3F4F4F4F5F4F01151105F1F670934D
:101620006201609361012CC0823051F522C080912B
:10163000F200803291F48091E8008E7F8093E80080
:1016400008C08EB3882329F430936201209361018E
:1016500053C08091E80080FFF4CFF999FECF32BDEE
:1016600021BDF89A80B58093F100415050402F5F22
:101670003F4F41155105D9F6309362012093610126
:1016800082E08093010127C08091E800877F8093EA
:10169000E80080915D018093F1001092F1001092BA
:1016A000F1001092F100809101018093F1001092FD
:1016B000F10011C08091E800877F8093E8001092CC
:1016C0005D0119C08091E800877F8093E8008091D8
:1016D00001018093F1008091E8008E7F8093E80003
:1016E0000AC08091E800877F8093E8005D9A5C9A49
:1016F00082E0809301018FD0DF91CF911F910F91F4
:10170000FF90EF90DF90CF90BF90AF909F907F9031
:101710006F905F904F903F902F90089539D181E066
:1017200085BF15BE089584B7877F84BF88E10FB653
:10173000F89480936000109260000FBE81E085BF36
:1017400082E085BF8AB180638AB98BB180638BB92F
:101750001AC1E9DF789401C033D380910001882356
:10176000D9F780915C018823B9F7D8DFE0915E0159
:10177000F0915F010995FA01923071F0933089F090
:10178000913029F488E091E022E130E019C080E056
:1017900090E020E030E014C08AE191E02BE130E0FD
:1017A0000FC0882339F480913501282F30E085E37C
:1017B00091E006C080913901282F30E089E391E063
:1017C00091838083C90108958093E9008091EB00A3
:1017D00081608093EB001092ED006093EC004093E9
:1017E000ED008091EE00881F8827881F08951092D1
:1017F000F40090E09093E9001092F0001092E8005D
:101800001092ED008091EB008E7F8093EB009F5F44
:10181000953081F708958091750188238CF403C079
:101820008EB38823B1F08091E80082FFF9CF8091D8
:10183000E8008B778093E80008958EB3882349F001
:101840008091E80080FFF9CF8091E8008E77809347
:10185000E80008959C0140917B0150917C0146175E
:10186000570710F490E03BC06115710511F0AB0112
:10187000F9CF8091E8008E778093E80040E050E057
:10188000F1CF8091E80083FF02C081E0089580914C
:10189000E80082FD30C08EB3882399F18EB3853085
:1018A00091F18091E80080FF1AC08091F20009C098
:1018B000F9012F5F3F4FE491E093F1004150504018
:1018C0008F5F4115510511F0883090F390E088301A
:1018D00009F491E08091E8008E778093E80041154B
:1018E000510579F6992369F606C08EB3882349F02D
:1018F0008EB3853041F08091E80082FFF6CF80E022
:10190000089582E0089583E0089558D05AD01EBA11
:1019100010927301109272011092710184E089BDDE
:1019200089B5826089BD09B400FEFDCF8091D800E1
:10193000982F9F779093D80080688093D8008091EB
:1019400063008E7F809363008091D8008F7D8093A9
:10195000D8008091E0008E7F8093E0008091E100CC
:101960008E7F8093E1008091E20081608093E200AD
:101970008091E100877F8093E1008091E2008860A0
:101980008093E2000895C1DF81E08093740108959F
:10199000BCDFE0EEF0E0808181608083E8EDF0E084
:1019A00080818F7780830AD00CD019BCE3E6F0E009
:1019B0008081816080831092740108951092E2000A
:1019C00008951092E10008951F920F920FB60F92A2
:1019D00011241F932F933F934F935F936F937F93A4
:1019E0008F939F93AF93BF93EF93FF93E9EEF0E054
:1019F000108117701082E0EFF0E08081877F808394
:101A00007894C3D0F894A9EEB0E01C92E0EFF0E037
:101A10008081886080831C93FF91EF91BF91AF918B
:101A20009F918F917F916F915F914F913F912F91F6
:101A30001F910F900FBE0F901F9018951F920F923D
:101A40000FB60F9211242F933F934F935F936F9391
:101A50007F938F939F93AF93BF93EF93FF93809167
:101A6000E10080FF1BC08091E20080FF17C08091E1
:101A7000E1008E7F8093E1008091E2008E7F809371
:101A8000E2008091E20080618093E2008091D800C2
:101A900080628093D80019BC1EBA91D18091E10078
:101AA00084FF29C08091E20084FF25C084E089BDC5
:101AB00089B5826089BD09B400FEFDCF8091D80050
:101AC0008F7D8093D8008091E1008F7E8093E1002C
:101AD0008091E2008F7E8093E2008091E20081603D
:101AE0008093E20080917301882311F481E001C0AA
:101AF00084E08EBB64D18091E10083FF27C0809198
:101B0000E20083FF23C08091E100877F8093E100A2
:101B100082E08EBB109273018091E1008E7F8093F2
:101B2000E1008091E2008E7F8093E2008091E200EC
:101B300080618093E2005BDE80E060E042E044DEB2
:101B40008091F00088608093F00039D18091E100AD
:101B500082FF0AC08091E20082FF06C08091E1000E
:101B60008B7F8093E1002BD1FF91EF91BF91AF91DB
:101B70009F918F917F916F915F914F913F912F91A5
:101B80000F900FBE0F901F9018951F93DF93CF9368
:101B900000D0CDB7DEB7E5E7F1E08091F1008193A9
:101BA00081E0ED37F807C9F7809175013091760132
:101BB000353009F487C0363040F43130C9F1313066
:101BC00070F0333009F0E6C033C0383009F4B8C0E3
:101BD000393009F4C7C0363009F0DCC092C0803813
:101BE00021F0823809F0D6C008C09091710180912F
:101BF0007201882399F0926011C0809179018770F9
:101C00008093E9008091EB0090E025E09695879520
:101C10002A95E1F7982F91701092E9008091E800E1
:101C2000877F8093E8009093F1001092F10093C0B9
:101C3000882319F0823009F0ADC090E08F71907068
:101C4000009721F0029709F0A6C00CC0809177019F
:101C5000813009F0A0C010927201333069F5809391
:101C600072012AC080917701882331F52091790192
:101C7000277009F490C02093E9008091EB0080FF69
:101C80008AC0333021F48091EB00806213C08091D0
:101C9000EB0080618093EB0081E090E002C0880F50
:101CA000991F2A95E2F78093EA001092EA0080914A
:101CB000EB0088608093EB001092E9008091E800CF
:101CC000877F4CC0882309F065C01091770180910F
:101CD000E800877F8093E8009EDD04C08EB38823F0
:101CE00009F459C08091E80080FFF8CF812F8F77E9
:101CF00011F492E001C093E09EBB80688093E30002
:101D00004AC08058823008F045C080917701909198
:101D1000780160917901AE014F5F5F4F2CDDBC010E
:101D20000097C9F18091E800877F8093E80089815E
:101D30009A8190DD8091E8008B778093E8002BC03A
:101D4000803841F58091E800877F8093E80080919A
:101D500073018093F1008091E8008E778093E80012
:101D60005ADD19C08823B1F490917701923098F42C
:101D70008091E800877F8093E800909373014BDDAA
:101D800080917301882311F483E001C084E08EBB4D
:101D900016D001C087DA8091E80083FF0AC08091E5
:101DA000EB0080628093EB008091E800877F809356
:101DB000E8000F900F90CF91DF911F910895089543
:101DC0001F938EB3882361F01091E9001092E9000F
:101DD0008091E80083FF01C0D8DE17701093E900FE
:081DE0001F910895F894FFCF54
:101DE80001021E948220DCFB120110010000002079
:101DF800EB03FA2F00000001000109021B0001019A
:101E08000080320904000000FE01020009210300DD
:101E180000000C000104030904200341007200645F
:101E280000750069006E006F00200055006E006F9D
:0C1E38000020004400460055000000009F
:0400000300001000E9
:00000001FF
